{
  "contractName": "Dai",
  "abi": [
    {
      "inputs": [
        {
          "internalType": "uint256",
          "name": "_initialSupply",
          "type": "uint256"
        }
      ],
      "stateMutability": "nonpayable",
      "type": "constructor"
    },
    {
      "anonymous": false,
      "inputs": [
        {
          "indexed": true,
          "internalType": "address",
          "name": "_owner",
          "type": "address"
        },
        {
          "indexed": true,
          "internalType": "address",
          "name": "_spender",
          "type": "address"
        },
        {
          "indexed": false,
          "internalType": "uint256",
          "name": "_value",
          "type": "uint256"
        }
      ],
      "name": "Approval",
      "type": "event"
    },
    {
      "anonymous": false,
      "inputs": [
        {
          "indexed": true,
          "internalType": "address",
          "name": "_from",
          "type": "address"
        },
        {
          "indexed": true,
          "internalType": "address",
          "name": "_to",
          "type": "address"
        },
        {
          "indexed": false,
          "internalType": "uint256",
          "name": "_value",
          "type": "uint256"
        }
      ],
      "name": "Transfer",
      "type": "event"
    },
    {
      "inputs": [
        {
          "internalType": "address",
          "name": "",
          "type": "address"
        },
        {
          "internalType": "address",
          "name": "",
          "type": "address"
        }
      ],
      "name": "allowance",
      "outputs": [
        {
          "internalType": "uint256",
          "name": "",
          "type": "uint256"
        }
      ],
      "stateMutability": "view",
      "type": "function",
      "constant": true
    },
    {
      "inputs": [
        {
          "internalType": "address",
          "name": "",
          "type": "address"
        }
      ],
      "name": "balanceOf",
      "outputs": [
        {
          "internalType": "uint256",
          "name": "",
          "type": "uint256"
        }
      ],
      "stateMutability": "view",
      "type": "function",
      "constant": true
    },
    {
      "inputs": [],
      "name": "name",
      "outputs": [
        {
          "internalType": "string",
          "name": "",
          "type": "string"
        }
      ],
      "stateMutability": "view",
      "type": "function",
      "constant": true
    },
    {
      "inputs": [],
      "name": "standard",
      "outputs": [
        {
          "internalType": "string",
          "name": "",
          "type": "string"
        }
      ],
      "stateMutability": "view",
      "type": "function",
      "constant": true
    },
    {
      "inputs": [],
      "name": "symbol",
      "outputs": [
        {
          "internalType": "string",
          "name": "",
          "type": "string"
        }
      ],
      "stateMutability": "view",
      "type": "function",
      "constant": true
    },
    {
      "inputs": [],
      "name": "totalSupply",
      "outputs": [
        {
          "internalType": "uint256",
          "name": "",
          "type": "uint256"
        }
      ],
      "stateMutability": "view",
      "type": "function",
      "constant": true
    },
    {
      "inputs": [
        {
          "internalType": "address",
          "name": "_to",
          "type": "address"
        },
        {
          "internalType": "uint256",
          "name": "_value",
          "type": "uint256"
        }
      ],
      "name": "transfer",
      "outputs": [
        {
          "internalType": "bool",
          "name": "success",
          "type": "bool"
        }
      ],
      "stateMutability": "nonpayable",
      "type": "function"
    },
    {
      "inputs": [
        {
          "internalType": "address",
          "name": "_spender",
          "type": "address"
        },
        {
          "internalType": "uint256",
          "name": "_value",
          "type": "uint256"
        }
      ],
      "name": "approve",
      "outputs": [
        {
          "internalType": "bool",
          "name": "success",
          "type": "bool"
        }
      ],
      "stateMutability": "nonpayable",
      "type": "function"
    },
    {
      "inputs": [
        {
          "internalType": "address",
          "name": "_from",
          "type": "address"
        },
        {
          "internalType": "address",
          "name": "_to",
          "type": "address"
        },
        {
          "internalType": "uint256",
          "name": "_value",
          "type": "uint256"
        }
      ],
      "name": "transferFrom",
      "outputs": [
        {
          "internalType": "bool",
          "name": "success",
          "type": "bool"
        }
      ],
      "stateMutability": "nonpayable",
      "type": "function"
    },
    {
      "inputs": [],
      "name": "total",
      "outputs": [
        {
          "internalType": "uint256",
          "name": "",
          "type": "uint256"
        }
      ],
      "stateMutability": "view",
      "type": "function",
      "constant": true
    }
  ],
  "bytecode": "0x60806040526040518060400160405280600981526020017f44616920546f6b656e00000000000000000000000000000000000000000000008152506000908051906020019062000051929190620001b4565b506040518060400160405280600481526020017f6d64616900000000000000000000000000000000000000000000000000000000815250600190805190602001906200009f929190620001b4565b506040518060400160405280600f81526020017f4441707020546f6b656e2076312e30000000000000000000000000000000000081525060029080519060200190620000ed929190620001b4565b50348015620000fb57600080fd5b5060405162001158380380620011588339818101604052810190620001219190620002a4565b80600560003373ffffffffffffffffffffffffffffffffffffffff1673ffffffffffffffffffffffffffffffffffffffff168152602001908152602001600020819055508060038190555033600460006101000a81548173ffffffffffffffffffffffffffffffffffffffff021916908373ffffffffffffffffffffffffffffffffffffffff160217905550506200033b565b828054620001c29062000305565b90600052602060002090601f016020900481019282620001e6576000855562000232565b82601f106200020157805160ff191683800117855562000232565b8280016001018555821562000232579182015b828111156200023157825182559160200191906001019062000214565b5b50905062000241919062000245565b5090565b5b808211156200026057600081600090555060010162000246565b5090565b600080fd5b6000819050919050565b6200027e8162000269565b81146200028a57600080fd5b50565b6000815190506200029e8162000273565b92915050565b600060208284031215620002bd57620002bc62000264565b5b6000620002cd848285016200028d565b91505092915050565b7f4e487b7100000000000000000000000000000000000000000000000000000000600052602260045260246000fd5b600060028204905060018216806200031e57607f821691505b60208210811415620003355762000334620002d6565b5b50919050565b610e0d806200034b6000396000f3fe608060405234801561001057600080fd5b506004361061009e5760003560e01c80635a3b7e42116100665780635a3b7e421461015d57806370a082311461017b57806395d89b41146101ab578063a9059cbb146101c9578063dd62ed3e146101f95761009e565b806306fdde03146100a3578063095ea7b3146100c157806318160ddd146100f157806323b872dd1461010f5780632ddbd13a1461013f575b600080fd5b6100ab610229565b6040516100b89190610a36565b60405180910390f35b6100db60048036038101906100d69190610af1565b6102b7565b6040516100e89190610b4c565b60405180910390f35b6100f96103a9565b6040516101069190610b76565b60405180910390f35b61012960048036038101906101249190610b91565b6103af565b6040516101369190610b4c565b60405180910390f35b610147610635565b6040516101549190610b76565b60405180910390f35b61016561063f565b6040516101729190610a36565b60405180910390f35b61019560048036038101906101909190610be4565b6106cd565b6040516101a29190610b76565b60405180910390f35b6101b36106e5565b6040516101c09190610a36565b60405180910390f35b6101e360048036038101906101de9190610af1565b610773565b6040516101f09190610b4c565b60405180910390f35b610213600480360381019061020e9190610c11565b610978565b6040516102209190610b76565b60405180910390f35b6000805461023690610c80565b80601f016020809104026020016040519081016040528092919081815260200182805461026290610c80565b80156102af5780601f10610284576101008083540402835291602001916102af565b820191906000526020600020905b81548152906001019060200180831161029257829003601f168201915b505050505081565b600081600660003373ffffffffffffffffffffffffffffffffffffffff1673ffffffffffffffffffffffffffffffffffffffff16815260200190815260200160002060008573ffffffffffffffffffffffffffffffffffffffff1673ffffffffffffffffffffffffffffffffffffffff168152602001908152602001600020819055508273ffffffffffffffffffffffffffffffffffffffff163373ffffffffffffffffffffffffffffffffffffffff167f8c5be1e5ebec7d5bd14f71427d1e84f3dd0314c0f7b2291e5b200ac8c7c3b925846040516103979190610b76565b60405180910390a36001905092915050565b60035481565b6000600560008573ffffffffffffffffffffffffffffffffffffffff1673ffffffffffffffffffffffffffffffffffffffff168152602001908152602001600020548211156103fd57600080fd5b600660008573ffffffffffffffffffffffffffffffffffffffff1673ffffffffffffffffffffffffffffffffffffffff16815260200190815260200160002060003373ffffffffffffffffffffffffffffffffffffffff1673ffffffffffffffffffffffffffffffffffffffff1681526020019081526020016000205482111561048657600080fd5b81600560008673ffffffffffffffffffffffffffffffffffffffff1673ffffffffffffffffffffffffffffffffffffffff16815260200190815260200160002060008282546104d59190610ce1565b9250508190555081600560008573ffffffffffffffffffffffffffffffffffffffff1673ffffffffffffffffffffffffffffffffffffffff168152602001908152602001600020600082825461052b9190610d15565b9250508190555081600660008673ffffffffffffffffffffffffffffffffffffffff1673ffffffffffffffffffffffffffffffffffffffff16815260200190815260200160002060003373ffffffffffffffffffffffffffffffffffffffff1673ffffffffffffffffffffffffffffffffffffffff16815260200190815260200160002060008282546105be9190610ce1565b925050819055508273ffffffffffffffffffffffffffffffffffffffff168473ffffffffffffffffffffffffffffffffffffffff167fddf252ad1be2c89b69c2b068fc378daa952ba7f163c4a11628f55a4df523b3ef846040516106229190610b76565b60405180910390a3600190509392505050565b6000600354905090565b6002805461064c90610c80565b80601f016020809104026020016040519081016040528092919081815260200182805461067890610c80565b80156106c55780601f1061069a576101008083540402835291602001916106c5565b820191906000526020600020905b8154815290600101906020018083116106a857829003601f168201915b505050505081565b60056020528060005260406000206000915090505481565b600180546106f290610c80565b80601f016020809104026020016040519081016040528092919081815260200182805461071e90610c80565b801561076b5780601f106107405761010080835404028352916020019161076b565b820191906000526020600020905b81548152906001019060200180831161074e57829003601f168201915b505050505081565b60008160056000600460009054906101000a900473ffffffffffffffffffffffffffffffffffffffff1673ffffffffffffffffffffffffffffffffffffffff1673ffffffffffffffffffffffffffffffffffffffff168152602001908152602001600020541015610819576040517f08c379a000000000000000000000000000000000000000000000000000000000815260040161081090610db7565b60405180910390fd5b8160056000600460009054906101000a900473ffffffffffffffffffffffffffffffffffffffff1673ffffffffffffffffffffffffffffffffffffffff1673ffffffffffffffffffffffffffffffffffffffff168152602001908152602001600020600082825461088a9190610ce1565b9250508190555081600560008573ffffffffffffffffffffffffffffffffffffffff1673ffffffffffffffffffffffffffffffffffffffff16815260200190815260200160002060008282546108e09190610d15565b925050819055508273ffffffffffffffffffffffffffffffffffffffff16600460009054906101000a900473ffffffffffffffffffffffffffffffffffffffff1673ffffffffffffffffffffffffffffffffffffffff167fddf252ad1be2c89b69c2b068fc378daa952ba7f163c4a11628f55a4df523b3ef846040516109669190610b76565b60405180910390a36001905092915050565b6006602052816000526040600020602052806000526040600020600091509150505481565b600081519050919050565b600082825260208201905092915050565b60005b838110156109d75780820151818401526020810190506109bc565b838111156109e6576000848401525b50505050565b6000601f19601f8301169050919050565b6000610a088261099d565b610a1281856109a8565b9350610a228185602086016109b9565b610a2b816109ec565b840191505092915050565b60006020820190508181036000830152610a5081846109fd565b905092915050565b600080fd5b600073ffffffffffffffffffffffffffffffffffffffff82169050919050565b6000610a8882610a5d565b9050919050565b610a9881610a7d565b8114610aa357600080fd5b50565b600081359050610ab581610a8f565b92915050565b6000819050919050565b610ace81610abb565b8114610ad957600080fd5b50565b600081359050610aeb81610ac5565b92915050565b60008060408385031215610b0857610b07610a58565b5b6000610b1685828601610aa6565b9250506020610b2785828601610adc565b9150509250929050565b60008115159050919050565b610b4681610b31565b82525050565b6000602082019050610b616000830184610b3d565b92915050565b610b7081610abb565b82525050565b6000602082019050610b8b6000830184610b67565b92915050565b600080600060608486031215610baa57610ba9610a58565b5b6000610bb886828701610aa6565b9350506020610bc986828701610aa6565b9250506040610bda86828701610adc565b9150509250925092565b600060208284031215610bfa57610bf9610a58565b5b6000610c0884828501610aa6565b91505092915050565b60008060408385031215610c2857610c27610a58565b5b6000610c3685828601610aa6565b9250506020610c4785828601610aa6565b9150509250929050565b7f4e487b7100000000000000000000000000000000000000000000000000000000600052602260045260246000fd5b60006002820490506001821680610c9857607f821691505b60208210811415610cac57610cab610c51565b5b50919050565b7f4e487b7100000000000000000000000000000000000000000000000000000000600052601160045260246000fd5b6000610cec82610abb565b9150610cf783610abb565b925082821015610d0a57610d09610cb2565b5b828203905092915050565b6000610d2082610abb565b9150610d2b83610abb565b9250827fffffffffffffffffffffffffffffffffffffffffffffffffffffffffffffffff03821115610d6057610d5f610cb2565b5b828201905092915050565b7f6e6f742067726561746572000000000000000000000000000000000000000000600082015250565b6000610da1600b836109a8565b9150610dac82610d6b565b602082019050919050565b60006020820190508181036000830152610dd081610d94565b905091905056fea26469706673582212201a102f6d5ba10f2bf640b2a62a24d471915dd840b5ffed6f4681fa250511edcc64736f6c634300080b0033",
  "immutableReferences": {},
  "source": "// SPDX-License-Identifier: GPL-3.0\npragma solidity >=0.6.0;\n\n\ncontract Dai{\n    string  public name = \"Dai Token\";\n    string  public symbol = \"mdai\";\n    string  public standard = \"DApp Token v1.0\";\n    uint256 public totalSupply;\n  address  private owner;\n    event Transfer(\n        address indexed _from,\n        address indexed _to,\n        uint256 _value\n    );\n\n    event Approval(\n        address indexed _owner,\n        address indexed _spender,\n        uint256 _value\n    );\n\n    mapping(address => uint256) public balanceOf;\n    mapping(address => mapping(address => uint256)) public allowance;\n\n    constructor (uint256 _initialSupply) public {\n        balanceOf[msg.sender] = _initialSupply;\n        totalSupply = _initialSupply;\n        owner =msg.sender;\n    }\n\n    function transfer(address  _to, uint256 _value) public  returns (bool success) {\n        require(balanceOf[owner] >= _value,\"not greater\");\n\n        balanceOf[owner] -= _value;\n        balanceOf[_to] += _value;\n\n       emit Transfer(owner, _to, _value);\n\n        return true;\n    }\n\n    function approve(address _spender, uint256 _value) public returns (bool success) {\n        allowance[msg.sender][_spender] = _value;\n\n      emit  Approval(msg.sender, _spender, _value);\n\n        return true;\n    }\n\n    function transferFrom(address _from, address _to, uint256 _value) public returns (bool success) {\n        require(_value <= balanceOf[_from]);\n        require(_value <= allowance[_from][msg.sender]);\n\n        balanceOf[_from] -= _value;\n        balanceOf[_to] += _value;\n\n        allowance[_from][msg.sender] -= _value;\n\n      emit  Transfer(_from, _to, _value);\n\n        return true;\n    }\n    function total() public view returns (uint256){\n        return totalSupply;\n    }\n}",
  "sourcePath": "/Users/namantripathi/Desktop/defi/contracts/dai.sol",
  "compiler": {
    "name": "solc",
    "version": "0.8.11+commit.d7f03943.Emscripten.clang"
  },
  "schemaVersion": "3.4.3",
  "updatedAt": "2022-01-26T07:57:45.196Z",
  "networkType": "ethereum",
  "devdoc": {
    "kind": "dev",
    "methods": {},
    "version": 1
  },
  "userdoc": {
    "kind": "user",
    "methods": {},
    "version": 1
  }
}