{
  "contractName": "Farm",
  "abi": [
    {
      "inputs": [
        {
          "internalType": "contract Clover",
          "name": "_clover",
          "type": "address"
        },
        {
          "internalType": "contract Dai",
          "name": "_dai",
          "type": "address"
        },
        {
          "internalType": "uint256",
          "name": "_price",
          "type": "uint256"
        }
      ],
      "stateMutability": "nonpayable",
      "type": "constructor"
    },
    {
      "inputs": [],
      "name": "clover",
      "outputs": [
        {
          "internalType": "contract Clover",
          "name": "",
          "type": "address"
        }
      ],
      "stateMutability": "view",
      "type": "function",
      "constant": true
    },
    {
      "inputs": [],
      "name": "dai",
      "outputs": [
        {
          "internalType": "contract Dai",
          "name": "",
          "type": "address"
        }
      ],
      "stateMutability": "view",
      "type": "function",
      "constant": true
    },
    {
      "inputs": [],
      "name": "owner",
      "outputs": [
        {
          "internalType": "address",
          "name": "",
          "type": "address"
        }
      ],
      "stateMutability": "view",
      "type": "function",
      "constant": true
    },
    {
      "inputs": [],
      "name": "price",
      "outputs": [
        {
          "internalType": "uint256",
          "name": "",
          "type": "uint256"
        }
      ],
      "stateMutability": "view",
      "type": "function",
      "constant": true
    },
    {
      "inputs": [
        {
          "internalType": "uint256",
          "name": "",
          "type": "uint256"
        }
      ],
      "name": "stakers",
      "outputs": [
        {
          "internalType": "address",
          "name": "",
          "type": "address"
        }
      ],
      "stateMutability": "view",
      "type": "function",
      "constant": true
    },
    {
      "inputs": [
        {
          "internalType": "address",
          "name": "",
          "type": "address"
        }
      ],
      "name": "stk",
      "outputs": [
        {
          "internalType": "uint256",
          "name": "",
          "type": "uint256"
        }
      ],
      "stateMutability": "view",
      "type": "function",
      "constant": true
    },
    {
      "inputs": [
        {
          "internalType": "uint256",
          "name": "amount",
          "type": "uint256"
        }
      ],
      "name": "stake",
      "outputs": [],
      "stateMutability": "nonpayable",
      "type": "function"
    },
    {
      "inputs": [],
      "name": "unstake",
      "outputs": [],
      "stateMutability": "nonpayable",
      "type": "function"
    }
  ],
  "bytecode": "0x60806040523480156200001157600080fd5b5060405162000eba38038062000eba833981810160405281019062000037919062000207565b816000806101000a81548173ffffffffffffffffffffffffffffffffffffffff021916908373ffffffffffffffffffffffffffffffffffffffff16021790555082600160006101000a81548173ffffffffffffffffffffffffffffffffffffffff021916908373ffffffffffffffffffffffffffffffffffffffff1602179055508060028190555033600360006101000a81548173ffffffffffffffffffffffffffffffffffffffff021916908373ffffffffffffffffffffffffffffffffffffffff16021790555050505062000263565b600080fd5b600073ffffffffffffffffffffffffffffffffffffffff82169050919050565b60006200013b826200010e565b9050919050565b60006200014f826200012e565b9050919050565b620001618162000142565b81146200016d57600080fd5b50565b600081519050620001818162000156565b92915050565b600062000194826200012e565b9050919050565b620001a68162000187565b8114620001b257600080fd5b50565b600081519050620001c6816200019b565b92915050565b6000819050919050565b620001e181620001cc565b8114620001ed57600080fd5b50565b6000815190506200020181620001d6565b92915050565b60008060006060848603121562000223576200022262000109565b5b6000620002338682870162000170565b93505060206200024686828701620001b5565b92505060406200025986828701620001f0565b9150509250925092565b610c4780620002736000396000f3fe608060405234801561001057600080fd5b50600436106100885760003560e01c8063bfdbd2c21161005b578063bfdbd2c2146100ef578063c701cc1a1461011f578063f4b9fa751461013d578063fd5e6dd11461015b57610088565b80632def66201461008d5780638da5cb5b14610097578063a035b1fe146100b5578063a694fc3a146100d3575b600080fd5b61009561018b565b005b61009f610410565b6040516100ac9190610768565b60405180910390f35b6100bd610436565b6040516100ca919061079c565b60405180910390f35b6100ed60048036038101906100e891906107e8565b61043c565b005b61010960048036038101906101049190610841565b610686565b604051610116919061079c565b60405180910390f35b61012761069e565b60405161013491906108cd565b60405180910390f35b6101456106c4565b6040516101529190610909565b60405180910390f35b610175600480360381019061017091906107e8565b6106e8565b6040516101829190610768565b60405180910390f35b6000600460003373ffffffffffffffffffffffffffffffffffffffff1673ffffffffffffffffffffffffffffffffffffffff16815260200190815260200160002054905060008111610212576040517f08c379a000000000000000000000000000000000000000000000000000000000815260040161020990610981565b60405180910390fd5b60648161021f91906109ff565b905060148161022e9190610a30565b905060008054906101000a900473ffffffffffffffffffffffffffffffffffffffff1673ffffffffffffffffffffffffffffffffffffffff1663a9059cbb33836040518363ffffffff1660e01b815260040161028b929190610a8a565b6020604051808303816000875af11580156102aa573d6000803e3d6000fd5b505050506040513d601f19601f820116820180604052508101906102ce9190610aeb565b50600160009054906101000a900473ffffffffffffffffffffffffffffffffffffffff1673ffffffffffffffffffffffffffffffffffffffff1663a9059cbb33836040518363ffffffff1660e01b815260040161032c929190610a8a565b6020604051808303816000875af115801561034b573d6000803e3d6000fd5b505050506040513d601f19601f8201168201806040525081019061036f9190610aeb565b506000600460003373ffffffffffffffffffffffffffffffffffffffff1673ffffffffffffffffffffffffffffffffffffffff168152602001908152602001600020819055506000600560003373ffffffffffffffffffffffffffffffffffffffff1673ffffffffffffffffffffffffffffffffffffffff16815260200190815260200160002060006101000a81548160ff02191690831515021790555050565b600360009054906101000a900473ffffffffffffffffffffffffffffffffffffffff1681565b60025481565b6000811161047f576040517f08c379a000000000000000000000000000000000000000000000000000000000815260040161047690610b64565b60405180910390fd5b60008054906101000a900473ffffffffffffffffffffffffffffffffffffffff1673ffffffffffffffffffffffffffffffffffffffff166323b872dd3330846040518463ffffffff1660e01b81526004016104dc93929190610b84565b6020604051808303816000875af11580156104fb573d6000803e3d6000fd5b505050506040513d601f19601f8201168201806040525081019061051f9190610aeb565b5080600460003373ffffffffffffffffffffffffffffffffffffffff1673ffffffffffffffffffffffffffffffffffffffff168152602001908152602001600020600082825461056f9190610bbb565b925050819055506001600560003373ffffffffffffffffffffffffffffffffffffffff1673ffffffffffffffffffffffffffffffffffffffff16815260200190815260200160002060006101000a81548160ff021916908315150217905550600560003373ffffffffffffffffffffffffffffffffffffffff1673ffffffffffffffffffffffffffffffffffffffff16815260200190815260200160002060009054906101000a900460ff16610683576006339080600181540180825580915050600190039060005260206000200160009091909190916101000a81548173ffffffffffffffffffffffffffffffffffffffff021916908373ffffffffffffffffffffffffffffffffffffffff1602179055505b50565b60046020528060005260406000206000915090505481565b600160009054906101000a900473ffffffffffffffffffffffffffffffffffffffff1681565b60008054906101000a900473ffffffffffffffffffffffffffffffffffffffff1681565b600681815481106106f857600080fd5b906000526020600020016000915054906101000a900473ffffffffffffffffffffffffffffffffffffffff1681565b600073ffffffffffffffffffffffffffffffffffffffff82169050919050565b600061075282610727565b9050919050565b61076281610747565b82525050565b600060208201905061077d6000830184610759565b92915050565b6000819050919050565b61079681610783565b82525050565b60006020820190506107b1600083018461078d565b92915050565b600080fd5b6107c581610783565b81146107d057600080fd5b50565b6000813590506107e2816107bc565b92915050565b6000602082840312156107fe576107fd6107b7565b5b600061080c848285016107d3565b91505092915050565b61081e81610747565b811461082957600080fd5b50565b60008135905061083b81610815565b92915050565b600060208284031215610857576108566107b7565b5b60006108658482850161082c565b91505092915050565b6000819050919050565b600061089361088e61088984610727565b61086e565b610727565b9050919050565b60006108a582610878565b9050919050565b60006108b78261089a565b9050919050565b6108c7816108ac565b82525050565b60006020820190506108e260008301846108be565b92915050565b60006108f38261089a565b9050919050565b610903816108e8565b82525050565b600060208201905061091e60008301846108fa565b92915050565b600082825260208201905092915050565b7f4e6f2062616c616e6365206c6566740000000000000000000000000000000000600082015250565b600061096b600f83610924565b915061097682610935565b602082019050919050565b6000602082019050818103600083015261099a8161095e565b9050919050565b7f4e487b7100000000000000000000000000000000000000000000000000000000600052601260045260246000fd5b7f4e487b7100000000000000000000000000000000000000000000000000000000600052601160045260246000fd5b6000610a0a82610783565b9150610a1583610783565b925082610a2557610a246109a1565b5b828204905092915050565b6000610a3b82610783565b9150610a4683610783565b9250817fffffffffffffffffffffffffffffffffffffffffffffffffffffffffffffffff0483118215151615610a7f57610a7e6109d0565b5b828202905092915050565b6000604082019050610a9f6000830185610759565b610aac602083018461078d565b9392505050565b60008115159050919050565b610ac881610ab3565b8114610ad357600080fd5b50565b600081519050610ae581610abf565b92915050565b600060208284031215610b0157610b006107b7565b5b6000610b0f84828501610ad6565b91505092915050565b7f6e6f20616d6f756e740000000000000000000000000000000000000000000000600082015250565b6000610b4e600983610924565b9150610b5982610b18565b602082019050919050565b60006020820190508181036000830152610b7d81610b41565b9050919050565b6000606082019050610b996000830186610759565b610ba66020830185610759565b610bb3604083018461078d565b949350505050565b6000610bc682610783565b9150610bd183610783565b9250827fffffffffffffffffffffffffffffffffffffffffffffffffffffffffffffffff03821115610c0657610c056109d0565b5b82820190509291505056fea2646970667358221220d3d1f3d4bbe8a91921656083db7e80af21e878aebf16a87e0359bd83b1fd73ba64736f6c634300080b0033",
  "immutableReferences": {},
  "source": "// SPDX-License-Identifier: GPL-3.0\npragma solidity >=0.6.0;\n\nimport \"./dai.sol\";\nimport \"./Black.sol\";\ncontract Farm{\n\tDai public dai;\n\tClover public clover;\n\tuint256 public price;\n     address public owner;\n\tmapping (address => uint) public stk;\n\tmapping (address => bool) hstk;\n\taddress[ ] public stakers;\n\t\n  constructor(Clover _clover,Dai _dai,uint256  _price) public\n  {\n   dai=_dai;\n   clover=_clover;\n   price=_price;\n     owner = msg.sender;\n  }\n  \n  function stake (uint amount)  public {\n  \t  \n  \t  require (amount > 0,\"no amount\");\n  \t  \n  \t  dai.transferFrom(msg.sender,address(this),amount);\n\n  \t  stk[msg.sender]+=amount;\n      \n  \t  hstk[msg.sender]=true;\n     if(!hstk[msg.sender]){\n      stakers.push(msg.sender);\n}\n      \n\n  }\n\n  function unstake () public {\n  \tuint balance=stk[msg.sender];\n  \trequire(balance>0,\"No balance left\");\n    balance=uint(balance)/100;\n    balance=balance*20;\n    dai.transfer(msg.sender,balance);\n\n    clover.transfer(msg.sender, balance);\n      stk[msg.sender]=0;\n    hstk[msg.sender]=false;\n  }\n \n  /*function issue() public {\nrequire(msg.sender == owner, \"caller must be the owner\");\n  \t    for (uint i=0; i<stakers.length; i++) {\n            address recipient = stakers[i];\n            uint balance = stk[recipient];\n\n            if(balance > 0) {\n               clover.transfer(recipient, balance);\n            }\n\n  }\n}*/\n}",
  "sourcePath": "/Users/namantripathi/Desktop/defi/contracts/Farm.sol",
  "compiler": {
    "name": "solc",
    "version": "0.8.11+commit.d7f03943.Emscripten.clang"
  },
  "schemaVersion": "3.4.3",
  "updatedAt": "2022-01-26T07:57:45.202Z",
  "networkType": "ethereum",
  "devdoc": {
    "kind": "dev",
    "methods": {},
    "version": 1
  },
  "userdoc": {
    "kind": "user",
    "methods": {},
    "version": 1
  }
}